S00D000053696D6F6E2E7372656311
S11300000C942C060C9454060C9454060C9454062C
S11300100C9454060C9454060C9454060C945406F4
S11300200C9454060C9454060C9454060C945406E4
S11300300C9454060C9454060C9454060C945406D4
S11300400C9454060C9454060C9454060C945406C4
S11300500C94540605A84CCDB2D44EB93836A90236
S11300600C50B9918688083CA6AAAA2ABE000000B2
S1130070803F1010205F000000000000000000001E
S1130080000000000000000000000000000000006C
S11300900000000000000000000007000F800F8037
S11300A00F800F800F80070007000000000007008A
S11300B007000700000000000E380E380E380E3816
S11300C006300000000000000000000000000000F6
S11300D000000000000000000C300C300C307FFEEB
S11300E07FFE0C300C300C300C307FFE7FFE0C3069
S11300F00C300C3000000000024002400FF81FF8E2
S11301001A401A401FF00FF8025802581FF81FF047
S11301100240024000000000000000000E100E30FB
S11301200E7000E001C0038007000E700C700870B0
S1130130000000000000000000000F00198019807A
S113014019800F000F080F9819F818F018E019F02B
S11301500F980000000000000000070007000700DF
S11301600E0000000000000000000000000000007D
S11301700000000000000000000000F001C0038047
S113018007000E000E000E000E000700038001C0E1
S113019000F000000000000000000F00038001C018
S11301A000E0007000700070007000E001C0038087
S11301B00F00000000000000000001801188099079
S11301C007E007E03FFC3FFC07E007E009901188E7
S11301D00180000000000000000000000000018019
S11301E0018001800FF00FF0018001800180000088
S11301F000000000000000000000000000000000FB
S113020000000000000000000000000007000700DC
S113021007000E00000000000000000000000000C5
S1130220000000001FF81FF800000000000000009C
S113023000000000000000000000000000000000BA
S1130240000000000000000000000000070007009C
S11302500700000000000000000000020006000E7D
S1130260001C0038007000E001C0038007000E008D
S11302701C0000000000000000000FF01C381C7877
S11302801CF81CF81DB81DB81F381F381E381C3840
S11302900FF00000000000000000018001800380D6
S11302A01F801F80038003800380038003800380FA
S11302B01FF000000000000000000FE01C701C385C
S11302C00038007000E001C0038007000E381C38BD
S11302D01FF800000000000000000FE01C701C3834
S11302E00038007003C003C0007000381C381C7054
S11302F00FE0000000000000000000E001E003E067
S113030006E00CE018E01FF81FF800E000E000E051
S113031003F800000000000000001FF81C001C008F
S11303201C001C001FE01FF0007800381C381C70F3
S11303300FE0000000000000000003E007000E00D2
S11303401C001C001FF01FF81C381C381C381C38FB
S11303500FF000000000000000001FFC1C1C1C1C0F
S11303601C1C001C0038007000E001C003800380E6
S1130370038000000000000000000FF01C381C384F
S11303801C381F3807E007E01CF81C381C381C38E0
S11303900FF000000000000000000FF01C381C38B3
S11303A01C381C381FF80FF800380038007000E0C3
S11303B007C00000000000000000000000000380EF
S11303C0038003800000000003800380038000009A
S11303D00000000000000000000000000000038096
S11303E00380038000000000038003800380070073
S11303F00000000000000000007000E001C0038065
S113040007000E001C001C000E000700038001C042
S113041000E0007000000000000000000000000088
S11304203FFC3FFC000000003FFC3FFC00000000DC
S113043000000000000000001C000E000700038004
S113044001C000E00070007000E001C003800700FC
S11304500E001C000000000003C00FF01E781838C6
S11304600038007000E001C001C00000000001C0BD
S113047001C001C0000000000FF81C1C1C1C1C1C47
S11304801C1C1CFC1CFC1CFC1CFC1C001C001C007C
S11304901FF007F800000000000003C007E00E7022
S11304A01C381C381C381C381FF81C381C381C38E5
S11304B01C3800000000000000001FF00E380E3849
S11304C00E380E380FF00FF00E380E380E380E3886
S11304D01FF0000000000000000007F00E381C3878
S11304E01C001C001C001C001C001C001C380E38C6
S11304F007F000000000000000001FE00E700E383E
S11305000E380E380E380E380E380E380E380E707F
S11305101FE000000000000000001FF80E180E0885
S11305200E000E300FF00FF00E300E000E080E18F5
S11305301FF800000000000000001FF80E180E084D
S11305400E000E300FF00FF00E300E000E000E00F5
S11305501F00000000000000000007F00E381C38E7
S11305601C381C001C001C001CF81C381C380E38DD
S113057007F800000000000000001C701C701C70D4
S11305801C701C701FF01FF01C701C701C701C7001
S11305901C7000000000000000000FE003800380D6
S11305A0038003800380038003800380038003802F
S11305B00FE0000000000000000001FC007000706B
S11305C000700070007000703870387038703870C7
S11305D00FE000000000000000001E380E380E700E
S11305E00EE00FC00F800F800FC00EE00E700E38AB
S11305F01E3800000000000000001F000E000E0066
S11306000E000E000E000E000E000E080E180E381E
S11306101FF800000000000000001C1C1E3C1F7C92
S11306201FFC1FFC1DDC1C9C1C1C1C1C1C1C1C1CFF
S11306301C1C00000000000000001C1C1C1C1E1CD4
S11306401F1C1F9C1DDC1CFC1C7C1C3C1C1C1C1C3F
S11306501C1C000000000000000003E007F00E383E
S11306601C1C1C1C1C1C1C1C1C1C1C1C0E3807F0F9
S113067003E000000000000000001FF00E380E38F8
S11306800E380E380FF00FF00E000E000E000E00A4
S11306901F00000000000000000003E00F780E3887
S11306A01C1C1C1C1C1C1C1C1C7C1CFC0FF80FF8A8
S11306B0003800FC0000000000001FF00E380E3867
S11306C00E380E380FF00FF00E700E380E380E384C
S11306D01E3800000000000000000FF01C381C3819
S11306E01C381C000FE007F000381C381C381C387C
S11306F00FF000000000000000001FFC19CC11C422
S113070001C001C001C001C001C001C001C001C0DD
S113071007F000000000000000001C701C701C703A
S11307201C701C701C701C701C701C701C701C7065
S11307300FE000000000000000001C701C701C7022
S11307401C701C701C701C701C701C700EE007C0A8
S1130750038000000000000000001C1C1C1C1C1C6A
S11307601C1C1C1C1C9C1C9C1C9C0FF80FF8077068
S1130770077000000000000000001C701C701C705A
S11307800EE007C00380038007C00EE01C701C70DD
S11307901C7000000000000000001C701C701C7025
S11307A01C701C700EE007C003800380038003806C
S11307B00FE000000000000000001FF81C3818388B
S11307C0107000E001C0038007000E081C181C38DC
S11307D01FF8000000000000000007F007000700F9
S11307E007000700070007000700070007000700CD
S11307F007F00000000000000000100018001C00BA
S11308000E000700038001C000E000700038001CE7
S11308100007000000000000000007F000700070F6
S11308200070007000700070007000700070007044
S113083007F0000000000000018003C007E00E7014
S11308401C38000000000000000000000000000050
S11308500000000000000000000000000000000094
S11308600000000000000000000000000000000084
S113087000007FFF7FFF000000001C001C00070039
S1130880070000000000000000000000000000005D
S11308900000000000000000000000000000000054
S11308A000000FE0007000700FF01C701C701C70D2
S11308B00FD800000000000000001E000E000E0013
S11308C00E000FF00E380E380E380E380E380E3873
S11308D01BF0000000000000000000000000000009
S11308E000000FE01C701C701C001C001C701C70AD
S11308F00FE0000000000000000000F8007000702D
S113090000700FF01C701C701C701C701C701C702C
S11309100FD80000000000000000000000000000EC
S113092000000FE01C701C701FF01C001C701C7079
S11309300FE0000000000000000003E007700770F3
S1130940070007001FE01FE007000700070007007B
S11309501FC00000000000000000000000000000B4
S113096000000FD81C701C701C701C700FF007F076
S113097000701C700FE0000000001E000E000E004E
S11309800E000EF00F380F380E380E380E380E38B1
S11309901E38000000000000000001C001C001C0BA
S11309A000000FC001C001C001C001C001C001C0EE
S11309B00FF80000000000000000007000700070DC
S11309C0000003F000700070007000700070007090
S11309D01C700CF007E0000000001E000E000E006A
S11309E00E000E380E700EE00FC00EE00E700E38C2
S11309F01E3800000000000000000FC001C001C04C
S1130A0001C001C001C001C001C001C001C001C0DA
S1130A100FF80000000000000000000000000000CB
S1130A2000001FF81C9C1C9C1C9C1C9C1C9C1C9C5B
S1130A301C9C0000000000000000000000000000FA
S1130A4000001FE01C701C701C701C701C701C705B
S1130A501C70000000000000000000000000000006
S1130A6000000FE01C701C701C701C701C701C704B
S1130A700FE0000000000000000000000000000083
S1130A8000001BF00E380E380E380E380E380FF0FA
S1130A900E000E001F000000000000000000000017
S1130AA000001FB038E038E038E038E038E01FE0FC
S1130AB000E000E001F00000000000000000000081
S1130AC000001EF00FF80F380E000E000E000E008E
S1130AD01F000000000000000000000000000000F3
S1130AE000000FE01C301C300F8003E018701870F9
S1130AF00FE00000000000000000000001000300FF
S1130B0007001FF0070007000700070007700770C1
S1130B1003E00000000000000000000000000000EE
S1130B2000001C701C701C701C701C701C701C70ED
S1130B300FD80000000000000000000000000000CA
S1130B4000001C701C701C701C701C700EE007C030
S1130B50038000000000000000000000000000000E
S1130B6000001C1C1C1C1C1C1C9C1C9C0FF80770EB
S1130B7007700000000000000000000000000000FA
S1130B8000001CE01CE00FC0078007800FC01CE0C1
S1130B901CE0000000000000000000000000000055
S1130BA000000E380E380E380E380E3807F003E009
S1130BB000E001C01F8000000000000000000000F1
S1130BC000001FE018E011C0038007000E201C6025
S1130BD01FE0000000000000000001F80380038013
S1130BE0038007001C001C000700038003800380AF
S1130BF001F800000000000001C001C001C001C0F4
S1130C0001C001C001C001C001C001C001C001C0D8
S1130C1001C001C00000000000001F8001C001C02D
S1130C2001C000E00038003800E001C001C001C08C
S1130C301F8000000000000000001F1C3B9C39DCEA
S1130C4038F8000000000000000000000000000070
S1130C50000000000000A70F11241FBECFE5D4E060
S1130C60DEBFCDBF10E0A0E6B0E0E0E9F4E302C0EF
S1130C7005900D92A639B107D9F721E0A6E9B0E0B5
S1130C8001C01D92A732B207E1F716E0CCE2D6E02C
S1130C9004C02197FE010E94B619CB32D107C9F7CF
S1130CA00E94100E0C94461A0C940000A5B3BA2F9F
S1130CB06894A7F9E894B7F9FB01059007FA1EF4C4
S1130CC04BBB52BB02C02BBB32BBB5BBA5BB06FAA8
S1130CD01EF44BBB52BB02C02BBB32BBB5BBA5BB86
S1130CE005FA1EF44BBB52BB02C02BBB32BBB5BBD7
S1130CF0A5BB04FA1EF44BBB52BB02C02BBB32BBD8
S1130D00B5BBA5BB03FA1EF44BBB52BB02C02BBB45
S1130D1032BBB5BBA5BB02FA1EF44BBB52BB02C02F
S1130D202BBB32BBB5BBA5BB01FA1EF44BBB52BBFC
S1130D3002C02BBB32BBB5BBA5BB00FA1EF44BBB38
S1130D4052BB02C02BBB32BBB5BBA5BB815090408C
S1130D508030910511F00C945D060895A5B3BA2F67
S1130D606894A7F9E894B7F9FB01059002BA0590D5
S1130D700BBAB5BBA5BB815090408030910511F0F2
S1130D800C94B5060895A5B3BA2F6894A7F9E8940E
S1130D90B7F9FC01112425912030A9F027FB56F462
S1130DA02F77059002BA05900BBAB5BBA5BB2A955F
S1130DB0E1F7F1CF059002BA05900BBAB5BBA5BB1C
S1130DC02A95C1F7E8CF00240895222786957795C0
S1130DD067952795769567952795769567952795D1
S1130DE07695679527952295CB01E5B3FE2F6894F8
S1130DF0E7F9E894F7F9009711F1F5BBE5BBF5BB0A
S1130E00E5BBF5BBE5BBF5BBE5BBF5BBE5BBF5BB9E
S1130E10E5BBF5BBE5BBF5BBE5BBF5BBE5BBF5BB8E
S1130E20E5BBF5BBE5BBF5BBE5BBF5BBE5BBF5BB7E
S1130E30E5BBF5BBE5BBF5BBE5BB0197F1F620309F
S1130E4021F0F5BBE5BB2A95E1F70895AF98AF9A79
S1130E506150704080409040C9F70895AE981124C5
S1130E608BBB12BAAF98AF9A0895AE9A6BBB82BB94
S1130E70AF98AF9A0895AE9A11248BBB12BAAF986B
S1130E80AF9A0895AE9811248BBB12BAAF98AF9A5B
S1130E90AE9A6BBB72BBAF98AF9A089582BB6BBB23
S1130EA0AF98AF9A0895CF93E5B3FE2F6894E7F90E
S1130EB0E894F7F98BBB92BBD601B695A7950F5F63
S1130EC01F4F02C02F5F3F4F2017310781F1F5BB41
S1130ED0E5BBAE0DBF1DAC15BD05A0F3AC19BD0936
S1130EE06F5F7F4F2F5F3F4FAE98C0E0C2BBCEE431
S1130EF0CBBBAF98AF9AAE9A72BB6BBBAF98AF9AAD
S1130F00AE98C0E0C2BBCFE4CBBBAF98AF9AAE9A69
S1130F1032BB2BBBAF98AF9AAE98C0E0C2BBC2E263
S1130F20CBBBAF98AF9AAE9A8BBB92BBCDCFCF91D0
S1130F300895CF93E5B3FE2F6894E7F9E894F7F9A1
S1130F408BBB92BBD601B695A7950150104002C049
S1130F50215030402017310781F1F5BBE5BBAE0DC0
S1130F60BF1DAC15BD05A0F3AC19BD096F5F7F4F64
S1130F7021503040AE98C0E0C2BBCEE4CBBBAF98AA
S1130F80AF9AAE9A72BB6BBBAF98AF9AAE98C0E003
S1130F90C2BBCFE4CBBBAF98AF9AAE9A32BB2BBBEC
S1130FA0AF98AF9AAE98C0E0C2BBC2E2CBBBAF98D9
S1130FB0AF9AAE9A8BBB92BBCDCFCF910895CF930E
S1130FC0E5B3FE2F6894E7F9E894F7F98BBB92BB7D
S1130FD0D601B695A7950F5F1F4F02C02F5F3F4FF5
S1130FE02017310781F1F5BBE5BBAE0DBF1DAC1574
S1130FF0BD05A0F3AC19BD09615070402F5F3F4F90
S1131000AE98C0E0C2BBCEE4CBBBAF98AF9AAE9A69
S113101072BB6BBBAF98AF9AAE98C0E0C2BBCFE4D3
S1131020CBBBAF98AF9AAE9A32BB2BBBAF98AF9AFB
S1131030AE98C0E0C2BBC2E2CBBBAF98AF9AAE9A47
S11310408BBB92BBCDCFCF910895CF93E5B3FE2F49
S11310506894E7F9E894F7F98BBB92BBD601B6958F
S1131060A7950150104002C021503040201731078D
S113107081F1F5BBE5BBAE0DBF1DAC15BD05A0F3FD
S1131080AC19BD096150704021503040AE98C0E0A9
S1131090C2BBCEE4CBBBAF98AF9AAE9A72BB6BBB6C
S11310A0AF98AF9AAE98C0E0C2BBCFE4CBBBAF98C9
S11310B0AF9AAE9A32BB2BBBAF98AF9AAE98C0E052
S11310C0C2BBC2E2CBBBAF98AF9AAE9A8BBB92BB0A
S11310D0CDCFCF910895CF93E5B3FE2F6894E7F970
S11310E0E894F7F98BBB92BBD701B695A7954F5FF0
S11310F05F4F02C06F5F7F4F6417750781F1F5BBC7
S1131100E5BBAC0DBD1DAE15BF05A0F3AE19BF09FF
S11311106F5F7F4F2F5F3F4FAE98C0E0C2BBCEE4FE
S1131120CBBBAF98AF9AAE9A72BB6BBBAF98AF9A7A
S1131130AE98C0E0C2BBCFE4CBBBAF98AF9AAE9A37
S113114032BB2BBBAF98AF9AAE98C0E0C2BBC2E231
S1131150CBBBAF98AF9AAE9A8BBB92BBCDCFCF919E
S11311600895CF93E5B3FE2F6894E7F9E894F7F96F
S11311708BBB92BBD701B695A7954F5F5F4F02C05B
S11311806F5F7F4F6417750781F1F5BBE5BBAC0D4D
S1131190BD1DAE15BF05A0F3AE19BF096F5F7F4F2C
S11311A021503040AE98C0E0C2BBCEE4CBBBAF9878
S11311B0AF9AAE9A72BB6BBBAF98AF9AAE98C0E0D1
S11311C0C2BBCFE4CBBBAF98AF9AAE9A32BB2BBBBA
S11311D0AF98AF9AAE98C0E0C2BBC2E2CBBBAF98A7
S11311E0AF9AAE9A8BBB92BBCDCFCF910895CF93DC
S11311F0E5B3FE2F6894E7F9E894F7F98BBB92BB4B
S1131200D701B695A7954150504002C06150704037
S11312106417750781F1F5BBE5BBAC0DBD1DAE15BB
S1131220BF05A0F3AE19BF09615070402F5F3F4F57
S1131230AE98C0E0C2BBCEE4CBBBAF98AF9AAE9A37
S113124072BB6BBBAF98AF9AAE98C0E0C2BBCFE4A1
S1131250CBBBAF98AF9AAE9A32BB2BBBAF98AF9AC9
S1131260AE98C0E0C2BBC2E2CBBBAF98AF9AAE9A15
S11312708BBB92BBCDCFCF910895CF93E5B3FE2F17
S11312806894E7F9E894F7F98BBB92BBD701B6955C
S1131290A7954150504002C06150704064177507D3
S11312A081F1F5BBE5BBAC0DBD1DAE15BF05A0F3CB
S11312B0AE19BF096150704021503040AE98C0E073
S11312C0C2BBCEE4CBBBAF98AF9AAE9A72BB6BBB3A
S11312D0AF98AF9AAE98C0E0C2BBCFE4CBBBAF9897
S11312E0AF9AAE9A32BB2BBBAF98AF9AAE98C0E020
S11312F0C2BBC2E2CBBBAF98AF9AAE9A8BBB92BBD8
S1131300CDCFCF9108950F931F93CF93DF93019780
S113131001F56F3F7F4FE9F484E191E00E94BB1037
S1131320CDE1D0E008ED10E0CF3FEFEFDE0789F02C
S11313300E94171A83709078992324F401978C6F74
S11313409F6F01960196F801819391938F012197E4
S1131350EBCFDF91CF911F910F9108950F931F93BE
S113136062E770E084E191E00E9423172FEF4FEFD2
S11313706FEF84E191E00E94AB110FEE10E026E9DB
S113138030E040E050E066E970E084E191E00E94E2
S11313906D1208E710E02FE331E048E750E060E029
S11313A070E084E191E00E946D1220E040E06FEF74
S11313B084E191E00E94AB1126E930E040E050E086
S11313C060E070E084E191E00E9415112FEF4FEF8F
S11313D06FEF84E191E00E94AB1100E010E02CE398
S11313E030E042E350E068E670E084E191E00E947E
S11313F0481620E04FEF60E084E191E00E94AB11D9
S11314000FEE10E026E930E048E750E060E070E0DD
S113141084E191E00E9415112FEF4FEF6FEF84E10B
S113142091E00E94AB1100E010E024EB30E042E3D5
S113143050E06DE670E084E191E00E9448162CECE7
S113144040E060E084E191E00E94AB1108E710E025
S11314502FE331E040E050E066E970E084E191E0A0
S11314600E9415112FEF4FEF6FEF84E191E00E947E
S1131470AB1100E010E02CE330E048EC50E062E710
S113148070E084E191E00E94481620E04FEF6FEF96
S113149084E191E00E94AB110FEE10E02FE331E004
S11314A048E750E066E970E084E191E00E9415119C
S11314B02FEF4FEF6FEF84E191E00E94AB1100E05A
S11314C010E024EB30E048EC50E067E770E084E1A2
S11314D091E00E9448161F910F9108950F931F9356
S11314E0CF93DF93EC0188819981019709F0E2C0E1
S11314F062E770E084E191E00E9423172FEF4FEF41
S11315006FEF84E191E00E94AB110FEE10E026E949
S113151030E040E050E066E970E084E191E00E9450
S11315206D1208E710E02FE331E048E750E060E097
S113153070E084E191E00E946D1220E04FEF60E0E2
S113154084E191E00E94AB110FEE10E026E930E057
S113155048E750E060E070E084E191E00E941511FA
S11315602FEF4FEF6FEF84E191E00E94AB1100E0A9
S113157010E024EB30E042E350E06DE670E084E1FB
S113158091E00E9448162CEC40E060E084E191E098
S11315900E94AB1108E710E02FE331E040E050E097
S11315A066E970E084E191E00E9415112FEF4FEF9E
S11315B06FEF84E191E00E94AB1100E010E02CE3B6
S11315C030E048EC50E062E770E084E191E00E9492
S11315D0481620E04FEF6FEF84E191E00E94AB11D9
S11315E00FEE10E02FE331E048E750E066E970E0E9
S11315F084E191E00E9415112FEF4FEF6FEF84E12A
S113160091E00E94AB1100E010E024EB30E048ECE4
S113161050E067E770E084E191E00E94481620E022
S113162040E06FEF84E191E00E94AB1108E710E025
S113163026E930E040E050E060E070E084E191E0D1
S11316400E9415112FEF4FEF6FEF84E191E00E949C
S1131650AB1100E010E02CE330E042E350E068E638
S113166070E084E191E00E9448162FEF8FE39BE045
S1131670215080409040E1F700C0000020E040E0AD
S11316806FEF84E191E00E94AB1108E710E026E9D6
S113169030E040E050E060E070E084E191E00E94DE
S11316A015112FEF8FE39BE0215080409040E1F72C
S11316B000C0000088819981039709F0E0C062E7C7
S11316C070E084E191E00E9423172FEF4FEF6FEF5A
S11316D084E191E00E94AB110FEE10E026E930E0C6
S11316E040E050E066E970E084E191E00E946D1210
S11316F008E710E02FE331E048E750E060E070E0F5
S113170084E191E00E946D122CEC40E060E084E101
S113171091E00E94AB112FE331E040E050E066E934
S113172070E084E191E00E9415112FEF4FEF6FEF0D
S113173084E191E00E94AB1100E010E02CE330E082
S113174048EC50E062E770E084E191E00E944816C2
S113175020E04FEF6FEF84E191E00E94AB110FEEB8
S113176010E02FE331E048E750E066E970E084E1FF
S113177091E00E9415112FEF4FEF6FEF84E191E09C
S11317800E94AB1100E010E024EB30E048EC50E0A4
S113179067E770E084E191E00E94481620E040E0B1
S11317A06FEF84E191E00E94AB1108E710E026E9B5
S11317B030E040E050E060E070E084E191E00E94BD
S11317C015112FEF4FEF6FEF84E191E00E94AB1101
S11317D000E010E02CE330E042E350E068E670E023
S11317E084E191E00E94481620E04FEF60E084E13C
S11317F091E00E94AB110FEE10E026E930E048E7DB
S113180050E060E070E084E191E00E9415112FEF58
S11318104FEF6FEF84E191E00E94AB1100E010E024
S113182024EB30E042E350E06DE670E084E191E0C7
S11318300E9448162FEF8FE39BE021508040904098
S1131840E1F700C0000020E04FEF60E084E191E0A8
S11318500E94AB110FEE10E026E930E048E750E0BB
S113186060E070E084E191E00E9415112FEF8FE3B6
S11318709BE0215080409040E1F700C00000888147
S11318809981029709F0E2C062E770E084E191E097
S11318900E9423172FEF4FEF6FEF84E191E00E9436
S11318A0AB110FEE10E026E930E040E050E066E9CD
S11318B070E084E191E00E946D1208E710E02FE3EC
S11318C031E048E750E060E070E084E191E00E949C
S11318D06D1220E04FEF6FEF84E191E00E94AB11B5
S11318E00FEE10E02FE331E048E750E066E970E0E6
S11318F084E191E00E9415112FEF4FEF6FEF84E127
S113190091E00E94AB1100E010E024EB30E048ECE1
S113191050E067E770E084E191E00E94481620E01F
S113192040E06FEF84E191E00E94AB1108E710E022
S113193026E930E040E050E060E070E084E191E0CE
S11319400E9415112FEF4FEF6FEF84E191E00E9499
S1131950AB1100E010E02CE330E042E350E068E635
S113196070E084E191E00E94481620E04FEF60E0CF
S113197084E191E00E94AB110FEE10E026E930E023
S113198048E750E060E070E084E191E00E941511C6
S11319902FEF4FEF6FEF84E191E00E94AB1100E075
S11319A010E024EB30E042E350E06DE670E084E1C7
S11319B091E00E9448162CEC40E060E084E191E064
S11319C00E94AB1108E710E02FE331E040E050E063
S11319D066E970E084E191E00E9415112FEF4FEF6A
S11319E06FEF84E191E00E94AB1100E010E02CE382
S11319F030E048EC50E062E770E084E191E00E945E
S1131A0048162FEF8FE39BE0215080409040E1F790
S1131A1000C000002CEC40E060E084E191E00E9412
S1131A20AB1108E710E02FE331E040E050E066E955
S1131A3070E084E191E00E9415112FEF8FE39BE0A9
S1131A40215080409040E1F700C0000088819981D6
S1131A50049709F0E0C062E770E084E191E00E943D
S1131A6023172FEF4FEF6FEF84E191E00E94AB114A
S1131A700FEE10E026E930E040E050E066E970E067
S1131A8084E191E00E946D1208E710E02FE331E059
S1131A9048E750E060E070E084E191E00E946D125C
S1131AA020E040E06FEF84E191E00E94AB1126E971
S1131AB030E040E050E060E070E084E191E00E94BA
S1131AC015112FEF4FEF6FEF84E191E00E94AB11FE
S1131AD000E010E02CE330E042E350E068E670E020
S1131AE084E191E00E94481620E04FEF60E084E139
S1131AF091E00E94AB110FEE10E026E930E048E7D8
S1131B0050E060E070E084E191E00E9415112FEF55
S1131B104FEF6FEF84E191E00E94AB1100E010E021
S1131B2024EB30E042E350E06DE670E084E191E0C4
S1131B300E9448162CEC40E060E084E191E00E94B1
S1131B40AB1108E710E02FE331E040E050E066E934
S1131B5070E084E191E00E9415112FEF4FEF6FEFD9
S1131B6084E191E00E94AB1100E010E02CE330E04E
S1131B7048EC50E062E770E084E191E00E9448168E
S1131B8020E04FEF6FEF84E191E00E94AB110FEE84
S1131B9010E02FE331E048E750E066E970E084E1CB
S1131BA091E00E9415112FEF4FEF6FEF84E191E068
S1131BB00E94AB1100E010E024EB30E048EC50E070
S1131BC067E770E084E191E00E9448162FEF8FE30D
S1131BD09BE0215080409040E1F700C0000020E0ED
S1131BE04FEF6FEF84E191E00E94AB110FEE10E034
S1131BF02FE331E048E750E066E970E084E191E0EA
S1131C000E9415112FEF8FE39BE0215080409040FC
S1131C10E1F700C00000DF91CF911F910F9108956B
S1131C208FEF88BB17BA84E191E00E94751161E0DF
S1131C3084E191E00E94F311C0E0D0E0CE31D105FF
S1131C40D4F40E94171A83709078992324F401978E
S1131C508C6F9F6F019601969E01220F331FF9012D
S1131C60E852FF4F91838083F901E656FF4F918339
S1131C7080832196E3CF80919800909199000197F9
S1131C80F1F484E191E00E94751120E040E06FEFEF
S1131C9084E191E00E94AB1162E770E084E191E09D
S1131CA00E94231700E010E02EE630E04EE057E2F9
S1131CB06CE770E084E191E00E944816FFCF8091C8
S1131CC06400909165004F97F1F484E191E00E94E3
S1131CD075112FEF4FEF6FEF84E191E00E94AB118C
S1131CE062E770E084E191E00E94231700E010E0D5
S1131CF02EE630E04EE057E266E870E084E191E0E1
S1131D000E944816FFCF809166009091670001976A
S1131D10E1F4C0E0D0E08091640090916500C817C0
S1131D20D9074CF4CE01880F991F88529F4F0E9407
S1131D306E0A2196F0CF81E090E09093D7008093D3
S1131D40D60010926700109266000E94AE09B09906
S1131D5036C08091960090919700FC01EE0FFF1F12
S1131D60E656FF4F2081318121303105C9F40196B7
S1131D7090939700809396002FEF4FEF6FEF84E1DD
S1131D8091E00E94AB1100E010E02EE630E04EE05E
S1131D9057E26EE870E084E191E00E94481606C0C4
S1131DA081E090E090939900809398002FEF8FE367
S1131DB09BE0215080409040E1F700C00000B199C1
S1131DC036C08091960090919700FC01EE0FFF1FA2
S1131DD0E656FF4F2081318122303105C9F4019646
S1131DE090939700809396002FEF4FEF6FEF84E16D
S1131DF091E00E94AB1100E010E02EE630E04EE0EE
S1131E0057E26EE870E084E191E00E94481606C053
S1131E1081E090E090939900809398002FEF8FE3F6
S1131E209BE0215080409040E1F700C00000B2994F
S1131E3036C08091960090919700FC01EE0FFF1F31
S1131E40E656FF4F2081318123303105C9F40196D4
S1131E5090939700809396002FEF4FEF6FEF84E1FC
S1131E6091E00E94AB1100E010E02EE630E04EE07D
S1131E7057E26EE870E084E191E00E94481606C0E3
S1131E8081E090E090939900809398002FEF8FE386
S1131E909BE0215080409040E1F700C00000B399DE
S1131EA036C08091960090919700FC01EE0FFF1FC1
S1131EB0E656FF4F2081318124303105C9F4019663
S1131EC090939700809396002FEF4FEF6FEF84E18C
S1131ED091E00E94AB1100E010E02EE630E04EE00D
S1131EE057E26EE870E084E191E00E94481606C073
S1131EF081E090E090939900809398002FEF8FE316
S1131F009BE0215080409040E1F700C00000209108
S1131F109600309197008091640090916500281795
S1131F20390709F0A8CE1092D7001092D60021E00C
S1131F3030E030936700209366000196909365002B
S1131F4080936400109297001092960094CE6FEFE5
S1131F507FEF81E090E00E94830908958FEF8ABBB0
S1131F6081BB84B3806484BB84B3806884BB84B342
S1131F70826084BB87B3806287BB88B3806288BB7E
S1131F8084B3816084BB85B3826085BB84B3826083
S1131F9084BB85B3816085BB8FEF93E20197F1F732
S1131FA000C0000085B38E7F85BB8FEF9BE6019751
S1131FB0F1F700C0000085B3816085BB8FEF9BE61D
S1131FC00197F1F700C0000085B38D7F85BB61E008
S1131FD070E080E00E94420764EA78EA83E00E94AD
S1131FE0420760E070E08CE00E9442076CE078E019
S1131FF08DE00E94420760E07BE28EE00E9442078F
S113200067EB70E08EE10E9442076FE37BE281E0C0
S11320100E94420760E076E082E00E94420760E0AE
S113202070E080E10E94420760E770E681E10E946F
S1132030420760E070E085E00E94420760E070E0E3
S113204086E00E9442076CE17FEE86E10E9442072F
S113205063E070E087E10E94420763E372E087E097
S11320600E94420760E070E08BE00E94420760E05B
S113207070E08FE00E94420760E070E081E40E941B
S1132080420760E070E082E40E94420760E070E092
S113209088E40E9442076FE371E089E40E944207EA
S11320A060E070E08AE40E94420760E070E08BE444
S11320B00E94420760E07FEE84E40E94420760E0F1
S11320C070E085E40E9442076FE371E086E40E94B9
S11320D0420767E077E080E30E94420764E072E031
S11320E081E30E94420764E072E082E30E944207B7
S11320F062E075E083E30E94420767E075E084E3F1
S11321000E94420764E072E085E30E94420764E0B3
S113211072E086E30E94420762E075E087E30E9472
S1132120420762E073E08AE30E94420762E073E0E0
S11321308BE30E94420760E070E083E20E94420762
S113214060E070E084E20E94420760E070E885E2AB
S11321500E94420760E070E08FE40E94420760E062
S113216070E08EE40E94420782E20E942E0785B34B
S1132170826085BB08954FEE50E060E070E0FC01A2
S113218045835683678370874FE351E060E070E0D6
S113219041875287638774870E94AE0F0895EF9238
S11321A0FF920F931F93CF93DF93EB01E42EF52E51
S11321B0FC014481413089F481859285A385B485ED
S11321C0AC01461B570B821B930B202F312F042F7E
S11321D0152FCE2DDF2DE82EF92E322F2227BE010A
S11321E0620F731F84E40E9442076E2D7F2D85E4E5
S11321F00E944207602F712F86E40E944207BE01AD
S11322008EE40E9442076E2D7F2D8FE40E944207C8
S113221082E20E942E0785B3806485BBDF91CF9153
S11322201F910F91FF90EF9008958F929F92AF921C
S1132230BF92CF92DF92EF92FF920F931F93CF93AF
S1132240DF934C015B017A016901E8012617370726
S113225024F48B2D5901C62ED82ECE15DF052CF46F
S11322609E2D8F2D7E01C92FD82F85B38D7F85BBE1
S11322708E019601A701B501C4010E94CF10F4019B
S1132280808182BB81818BBB96012A193B09C901DC
S1132290330FAA0BBB0B9C01AD012F5F3F4F4F4F78
S11322A05F4FBE016E197F09CB01770FAA0BBB0BE1
S11322B0BC01CD016F5F7F4F8F4F9F4F0E947119FB
S11322C00E94E5068FEF8BBB82BB85B38D7F85BBF8
S11322D0DF91CF911F910F91FF90EF90DF90CF90FE
S11322E0BF90AF909F908F90089585B38D7F85BBED
S11322F060E07FEE84E40E94420760E070E085E4E1
S11323000E9442076FE371E086E40E94420760E0A6
S113231070E08EE40E94420760E070E08FE40E9467
S1132320420768E770E681E10E94420782E20E9468
S11323302E0785B3806485BB1BBA12BA60E07CE2C9
S113234081E090E00E94E5068FEF8BBB82BB85B3F2
S11323508D7F85BB0895E42FF0E0F595E795F5951D
S1132360E795F595E795F595E795F595E795687FF4
S1132370E62BDC01EC934C7150E0440F551F440FE5
S1132380551F440F551F30E03595279535952795F2
S113239035952795422B11964C930895E42FF0E040
S11323A0F595E795F595E795F595E795F595E79511
S11323B0F595E795687FE62BDC011296EC9312976E
S11323C04C7150E0440F551F440F551F440F551FC7
S11323D030E0359527953595279535952795422BEA
S11323E013964C930895CF93DF93EC016C832FEFF6
S11323F04FEF6FEF0E94AB1120E040E060E0CE01B0
S11324000E94CE111E861D86DF91CF910895872FDD
S11324100E9435070895EF92FF920F931F93CF9375
S1132420DF937C01E901DD232CF4620F731FD19546
S1132430C195D10985B38D7F85BB9B012C0F3D1FB1
S11324408A01C7010E94CF10F701808182BB81817C
S11324508BBBBE01DD0F880B990B0E94E5068FEF45
S11324608BBB82BB85B3826085BBDF91CF911F910B
S11324700F91FF90EF900895EF92FF920F931F93A7
S1132480CF93DF937C01E901DD232CF4420F531F2A
S1132490D195C195D10985B38D7F85BB8A010C0F78
S11324A01D1F9B01C7010E94CF10F701808182BBD1
S11324B081818BBBBE01DD0F880B990B0E94E50661
S11324C08FEF8BBB82BB85B3826085BBDF91CF91DD
S11324D01F910F91FF90EF9008952F923F924F928A
S11324E05F926F927F928F929F92AF92BF92CF92A0
S11324F0DF92EF92FF920F931F93CF93DF933C01F0
S11325005B01EA0149014017510729F4261B370BE7
S11325100E940B1242C12617370731F49801241B7D
S1132520350B0E943C1239C1DC0114968C9114972E
S1132530813079F419968D919D910D90BC91A02DC7
S11325409C01261B370B8819990948018C015A01F3
S1132550E901C4018A199B097C0122F4EE24FF24B9
S1132560E81AF90AC8018C1B9D0B6C0122F4CC24D7
S1132570DD24C81AD90A85B38D7F85BB60E07FEE60
S113258084E40E94420760E070E085E40E94420710
S11325906FE371E086E40E944207B5018EE40E9475
S11325A04207BE018FE40E944207EC14FD0408F0C8
S11325B079C0C017D107DCF5A814B904E4F468E7BE
S11325C070E681E10E94420782E20E942E0785B3F1
S11325D0806485BBD3011196EC9111978C9190E0A6
S11325E0982F88272C2F3D2FA4016A2D7B2D8E2B0D
S11325F00E945307CFC068E770E681E10E9442075A
S113260082E20E942E0785B3806485BBD3011196B4
S1132610EC9111978C9190E0982F88272C2F3D2FC7
S1132620A4016A2D7B2D8E2B0E94DF07B3C0A81452
S1132630B904E4F468E570E681E10E94420782E2AD
S11326400E942E0785B3806485BBD3011196EC915B
S113265011978C9190E0982F88272C2F3D2FA4015F
S11326606A2D7B2D8E2B0E94990794C068E570E635
S113267081E10E94420782E20E942E0785B38064B2
S113268085BBD3011196EC9111978C9190E0982F12
S113269088272C2F3D2FA4016A2D7B2D8E2B0E9481
S11326A0250878C0C017D107DCF5A814B904E4F4F0
S11326B060E770E681E10E94420782E20E942E07F1
S11326C085B3806485BBD3011196EC9111978C91ED
S11326D090E0982F88272C2F3D2FA4016A2D7B2D65
S11326E08E2B0E946B0856C060E670E681E10E9462
S11326F0420782E20E942E0785B3806485BBD30122
S11327001196EC9111978C9190E0982F88272C2F9B
S11327103D2FA4016A2D7B2D8E2B0E94F7083AC011
S1132720A814B904E4F460E570E681E10E9442076C
S113273082E20E942E0785B3806485BBD301119683
S1132740EC9111978C9190E0982F88272C2F3D2F96
S1132750A4016A2D7B2D8E2B0E94B1081BC060E65C
S113276070E681E10E94420782E20E942E0785B34F
S1132770806485BBD3011196EC9111978C9190E004
S1132780982F88272C2F3D2FA4016A2D7B2D8E2B6B
S11327900E943D0985B3826085BBDF91CF911F9173
S11327A00F91FF90EF90DF90CF90BF90AF909F90EC
S11327B08F907F906F905F904F903F902F900895EF
S11327C0AF92BF92CF92DF92EF92FF920F931F933B
S11327D0CF93DF93EC017A01890185B38D7F85BBAB
S11327E08C81811169C02989862F90E0821B91090F
S11327F04F85542F569556955695288930E0529F0B
S1132800B001539F700D1124869F6001879FD00CE7
S1132810969FD00C112484E0C80ED11CC701840FEC
S1132820911D200F311F590141E0A41AB10860E045
S113283070E07FEF780F6E0D7F1D84E40E944207E5
S1132840B80185E40E944207B50186E40E9442076C
S1132850B7018EE40E944207B8018FE40E94420748
S113286060E770E681E10E94420782E20E942E073F
S113287085B3806485BB2A8130E0322F22278B8187
S1132880282B488150E0542F44278981482B6D859B
S11328907E856C0D7D1D88899F85899FC0011124CB
S11328A099230CF407969595879595958795959515
S11328B087950E9456066FC02989862F90E0821B57
S11328C091094F85542F569556955695288930E091
S11328D0529FB001539F700D1124869F6001879F02
S11328E0D00C969FD00C112484E0C80ED11CC701D3
S11328F0840F911D0197200F311F49855A856B85DF
S11329007C855A01AE18BF087A01E81AF90A60E01A
S113291070E07FEF720F600F711F84E40E94420722
S1132920B70185E40E944207B50186E40E9442078C
S1132930B8018EE40E944207B5018FE40E94420769
S113294068E570E681E10E94420782E20E942E0758
S113295085B3806485BB2A8130E0322F22278B81A6
S1132960282B488150E0542F44278981482B6D85BA
S11329707E856C0D7D1D88899F85899FC0011124EA
S113298099230CF407969595879595958795959534
S113299087950E94560685B3826085BBDF91CF91EF
S11329A01F910F91FF90EF90DF90CF90BF90AF9069
S11329B008952F923F924F925F926F927F928F92DF
S11329C09F92AF92BF92CF92DF92EF92FF920F93BA
S11329D01F93CF93DF93CDB7DEB76B970FB6F89401
S11329E0DEBF0FBECDBF5C0169833A0149011F8B75
S11329F00E8BB701FF0C880B990B0E94E81729E294
S1132A003CE54FE85CE30E94B318698B7A8B8B8BAF
S1132A109C8B85B38D7F85BBD50151968C91B981F3
S1132A202B2F30E0281B3109F50187858695869583
S1132A3086959089899FC0011124289FA001299F10
S1132A40500D389F500D11249A012C5F3F4F398F40
S1132A50288F1D8AD50150968C91BD89B81708F02E
S1132A60FBC0412C512CF50187858695869586956A
S1132A70282F30E0421653060CF0E4C00584F68596
S1132A80E02D888D998D840D951DE80FF91F2490F4
S1132A90312C3A8E2B8EFA8DF83008F0CFC02F2EC1
S1132AA0312CB201660F771F660F771F660F771FF1
S1132AB0620D731DD5011F962C91EE89FF892E9FFF
S1132AC0C0012F9F900D1124680F791F072E000C51
S1132AD0880B990B0E94E81769837A838B839C8304
S1132AE069897A898B899C890E94AB176D837E835F
S1132AF08F8398879B01AC0169817A818B819C814A
S1132B000E94B3186B017C01FD896F2F70E080E097
S1132B1090E00E94E81769877A878B879C87698988
S1132B207A898B899C890E9420196D877E878F877B
S1132B30988B9B01AC0169857A858B859C850E9465
S1132B40B3189B01AC01C701B6010E943E176B018B
S1132B507C01B301072C000C880B990B0E94E81729
S1132B60A70196010E943F170E94B0176B017C01D8
S1132B7029853A854B855C856D817E818F81988519
S1132B800E94B3186D837E838F8398872D853E853D
S1132B904F85588969817A818B819C810E94B31801
S1132BA09B01AC016D817E818F8198850E943F17C6
S1132BB069837A838B839C83B401092C000C880B72
S1132BC0990B0E94E81729813A814B815C810E940C
S1132BD03F170E94B0178B010F5F1F4F96012F5FA5
S1132BE03F4FAB01B601C5010E94CF1027E030E092
S1132BF0221933094B8D842F90E002C09595879557
S1132C002A95E2F780FF0CC0D5016C9170E0762F15
S1132C10662711968C91682BC5010E9407120AC081
S1132C20F501628170E0762F66278381682BC501E8
S1132C300E940712FA8DFF5FFA8F2DCF2FEF421AF1
S1132C40520A11CF488D598D480F511D598F488F05
S1132C505D895F5F5D8BFECE85B3826085BB6B96BD
S1132C600FB6F894DEBF0FBECDBFDF91CF911F9199
S1132C700F91FF90EF90DF90CF90BF90AF909F9017
S1132C808F907F906F905F904F903F902F9008951A
S1132C902F923F924F925F926F927F928F929F9268
S1132CA0AF92BF92CF92DF92EF92FF920F931F9356
S1132CB0CF93DF93EC01FB015A0129016801DB0189
S1132CC00D900020E9F71197A61BB70B4D018C81DD
S1132CD081113EC04F30574281F44D815E816F8136
S1132CE078852F852A9FC0012B9F900D1124481BA6
S1132CF0590B5A011FEFA11AB10A2EE0A21627E2BE
S1132D00B20609F061C04D815E816F8178854F5FA5
S1132D105F4F6F4F7F4F2F852A9FC0012B9F900DD0
S1132D201124092E000CAA0BBB0B8A019B01081B62
S1132D30190B2A0B3B0BB901A80122F44F5F5F4F1B
S1132D406F4F7F4F75956795579547955A013CC0CE
S1132D504F30574281F449855A856B857C852F8590
S1132D602A9FC0012B9F900D1124481B590B5A0117
S1132D702FEFA21AB20A3EE0A31637E2B30621F5FA
S1132D8049855A856B857C854F5F5F4F6F4F7F4FB9
S1132D902F852A9FC0012B9F900D1124092E000C12
S1132DA0AA0BBB0B8A019B01081B190B2A0B3B0BBB
S1132DB0B901A80122F44F5F5F4F6F4F7F4F7595A4
S1132DC06795579547955A01612C712C68147904BD
S1132DD03CF5C114D10499F48F85869DA001879D8B
S1132DE0500D11244A0D5B1D1F011FEF211A310ADA
S1132DF060819201CE010E94E013F1010DC01F0118
S1132E002FEF221A320A6081760183019201A50113
S1132E10CE010E94D914F1013FEF631A730AD6CF91
S1132E20DF91CF911F910F91FF90EF90DF90CF90A2
S1132E30BF90AF909F908F907F906F905F904F90D6
S1132E403F902F900895DC011E967C936E931D97FE
S1132E50FB0184911F968C931F973196E4915096B1
S1132E60EC935097FB013296E4915196EC93519771
S1132E70FB013396649152966C9308955058BB2786
S1132E80AA270E9456170C9465180E942C1838F033
S1132E900E94331820F039F49F3F19F426F40C945F
S1132EA029180EF4E095E7FB0C942318E92F0E94EF
S1132EB08A1858F3BA17620773078407950720F036
S1132EC079F4A6F50C94AC180EF4E0950B2EBA2FF9
S1132ED0A02D0B01B90190010C01CA01A00111241C
S1132EE0FF27591B99F0593F50F4503E68F11A16C8
S1132EF0F040A22F232F342F4427585FF3CF469559
S1132F0037952795A795F0405395C9F77EF41F167A
S1132F10BA0B620B730B840BBAF09150A1F0FF0F44
S1132F20BB1F661F771F881FC2F70EC0BA0F621F30
S1132F30731F841F48F4879577956795B795F79520
S1132F409E3F08F0B0CF9395880F08F09927EE0FB5
S1132F509795879508950E943C18E3950C947618EC
S1132F600E94B7176894B1110C94AD1808950E948B
S1132F70921888F09F5798F0B92F9927B751B0F05D
S1132F80E1F0660F771F881F991F1AF0BA95C9F7E9
S1132F9014C0B13091F00E94AC18B1E008950C94C3
S1132FA0AC18672F782F8827B85F39F0B93FCCF376
S1132FB0869577956795B395D9F73EF49095809566
S1132FC0709561957F4F8F4F9F4F0895E89409C086
S1132FD097FB3EF490958095709561957F4F8F4F48
S1132FE09F4F9923A9F0F92F96E9BB279395F6955E
S1132FF0879577956795B795F111F8CFFAF4BB0FDC
S113300011F460FF1BC06F5F7F4F8F4F9F4F16C03F
S1133010882311F096E911C0772321F09EE8872FC9
S1133020762F05C0662371F096E8862F70E060E085
S11330302AF09A95660F771F881FDAF7880F9695FE
S1133040879597F9089597F99F6780E870E060E0A5
S113305008959FEF80EC089500240A94161617062D
S113306018060906089500240A9412161306140675
S1133070050608950C9429180E949218D8F3E89430
S1133080E0E0BB279F57F0F02AED3FE049EC06C093
S1133090EE0FBB0F661F771F881F28F0B23A620736
S11330A07307840728F0B25A620B730B840BE39501
S11330B09A9572F7803830F49A95BB0F661F771F84
S11330C0881FD2F790480C942A19092E0394000CF7
S11330D011F4882352F0BB0F40F4BF2B11F460FFAE
S11330E004C06F5F7F4F8F4F9F4F0895EF93E0FFB2
S11330F007C0A2EA2AED3FE049EC5FEB0E945617B5
S11331000E9465180F90039401FC9058E4E5F0E0E8
S11331100C94361957FD9058440F551F59F05F3FD2
S113312071F04795880F97FB991F61F09F3F79F0E5
S113313087950895121613061406551FF2CF469567
S1133140F1DF08C0161617061806991FF1CF8695E9
S11331507105610508940895E894BB2766277727CD
S1133160CB0197F908950E94C6180C9465180E9423
S11331702C1838F00E94331820F0952311F00C9489
S113318023180C94291811240C94AD180E948A1841
S113319070F3959FC1F3950F50E0551F629FF001A6
S11331A0729FBB27F00DB11D639FAA27F00DB11DBF
S11331B0AA1F649F6627B00DA11D661F829F222748
S11331C0B00DA11D621F739FB00DA11D621F839FCF
S11331D0A00D611D221F749F3327A00D611D231FA5
S11331E0849F600D211D822F762F6A2F11249F57F3
S11331F050409AF0F1F088234AF0EE0FFF1FBB1FF6
S1133200661F771F881F91505040A9F79E3F5105B4
S113321080F00C9423180C94AD185F3FE4F3983EAF
S1133220D4F3869577956795B795F795E7959F5F5E
S1133230C1F7FE2B880F911D9695879597F90895F0
S11332409F930E943C180F9007FCEE5F0C94761835
S11332509F3F31F0915020F4879577956795B79506
S1133260880F911D9695879597F908959F938F934D
S11332707F936F93FF93EF939B01AC010E94B3186C
S1133280EF91FF910E944A192F913F914F915F91C5
S11332900C94B318DF93CF931F930F93FF92EF9285
S11332A0DF927B018C01689406C0DA2EEF010E9444
S11332B0C618FE01E894A591259135914591559143
S11332C0A6F3EF010E945617FE019701A801DA94B4
S11332D069F7DF90EF90FF900F911F91CF91DF91ED
S11332E00895DB018F939F930E94A319BF91AF911F
S11332F0A29F800D911DA39F900DB29F900D11244C
S11333000895A1E21A2EAA1BBB1BFD010DC0AA1F22
S1133310BB1FEE1FFF1FA217B307E407F50720F03A
S1133320A21BB30BE40BF50B661F771F881F991FB5
S11333301A9469F760957095809590959B01AC01FE
S1133340BD01CF0108950E94BC19A59F900DB49FA3
S1133350900DA49F800D911D11240895B7FF0C9426
S1133360A3190E94A319821B930B0895EE0FFF1F4C
S11333700590F491E02D0994A29FB001B39FC00180
S1133380A39F700D811D1124911DB29F700D811D8D
S11333901124911D08958F929F92AF92BF92CF9264
S11333A0DF92EF92FF92CF93DF93EC0168817981F2
S11333B08A819B81611571058105910521F464E27F
S11333C079ED8BE597E02DE133EF41E050E00E9489
S11333D0271A49015A019B01AC01A7EAB1E40E94F2
S11333E0A3196B017C01ACEEB4EFA50194010E941A
S11333F0B119DC01CB018C0D9D1DAE1DBF1DB7FFA6
S113340003C00197A109B04888839983AA83BB8329
S11334109F77DF91CF91FF90EF90DF90CF90BF9097
S1133420AF909F908F9008950E94CB19089580E6E5
S113343090E00E94CB190895A0E0B0E08093600072
S113344090936100A0936200B09363000895052EE9
S113345097FB1EF400940E943E1A57FD07D00E9469
S1133460811907FC03D04EF40C943E1A50954095F4
S1133470309521953F4F4F4F5F4F0895909580951C
S1133480709561957F4F8F4F9F4F0895F894FFCFAC
S113349001000000010001004B657931004B6579A2
S11334A033004B657932004B6579340047414D4513
S11334B0204F56455200594F552057494E00434F0F
S10934C052524543540082
S9030000FC
